:020000040800F2
:10000000081B0020AD010008EB1D00080D1C0008B6
:10001000E91D00084F030008FD3300080000000040
:10002000000000000000000000000000FB1D0008B0
:100030008503000800000000F91D0008FD1D0008F0
:10004000C7010008C7010008C7010008C701000870
:10005000C7010008C7010008C7010008C701000860
:10006000C7010008C7010008C7010008C701000850
:10007000C7010008C7010008C7010008C701000840
:10008000C7010008C7010008C70100080000000000
:10009000000000000000000000000000C701000890
:1000A000C7010008C7010008C7010008C701000810
:1000B000C7010008C7010008C7010008C701000800
:1000C000C7010008C7010008C7010008C7010008F0
:1000D000C7010008C7010008C701000800000000B0
:1000E000C7010008C7010008C701000800000000A0
:1000F000000000000000000000000000C701000830
:1001000000000000C7010008C7010008C70100087F
:1001100000000000000000000000000000000000DF
:10012000C7010008C7010008C7010008C70100088F
:10013000C7010008000000000000000000000000EF
:10014000000000000000000000000000ED1D00089D
:10015000C7010008C7010008C7010008C70100085F
:10016000C7010008C70100080000000000000000EF
:10017000000000000000000000000000000000007F
:1001800000000000C701000800000000000000009F
:10019000C7010008C7010008DFF80CD000F09AF88A
:1001A0000048004731390008081B002006488047F6
:1001B00006480047FEE7FEE7FEE7FEE7FEE7FEE74C
:1001C000FEE7FEE7FEE7FEE7A51E0008990100082E
:1001D0002DE9F05F0546002092469B46884606467C
:1001E000814640241BE0284641464746224600F00F
:1001F00060F853465A46C01A914110D3114618462A
:10020000224600F047F82D1A67EB01084F462246B8
:100210000120002100F03EF817EB00094E41201E9E
:10022000A4F10104DFDC484631462A464346BDE8D6
:10023000F09F40EA01039B0703D009E008C9121FA1
:1002400008C0042AFAD203E011F8013B00F8013B90
:10025000521EF9D27047D2B201E000F8012B491EBC
:10026000FBD270470022F6E710B513460A46044653
:100270001946FFF7F0FF204610BD30B504460020B8
:10028000034600E05B1C934203D2E05CCD5C401B64
:10029000F8D030BD202A04DB203A00FA02F1002019
:1002A00070479140C2F1200320FA03F319439040B4
:1002B0007047202A04DB203A21FA02F0002170471F
:1002C00021FA02F3D040C2F12002914008431946BE
:1002D00070470000064C074D06E0E06840F001035F
:1002E00094E8070098471034AC42F6D3FFF758FF64
:1002F000F43E0008143F000870B58C1810F8015B3C
:1003000015F0070301D110F8013B2A1106D110F8AE
:10031000012B03E010F8016B01F8016B5B1EF9D1B2
:100320002B0705D40023521E0DD401F8013BFAE738
:1003300010F8013BCB1A921C03E013F8015B01F8A3
:10034000015B521EF9D5A142D8D3002070BDFEE753
:1003500000207047002070470748084AD0F89002F4
:100360000021402903D0435C53540131F9E704488C
:100370000121017000207047180400209401002022
:100380009001002070477047D24A0329136823F474
:10039000407313604FF4407338BF0B021168194368
:1003A0001160116821F0F8011160116841EAC00084
:1003B00040F002001060106840F480301060704718
:1003C0001348016889050FD5016821F400710160A7
:1003D000016841F400610160016821F4006101607D
:1003E000016841F400710160016849050FD5016899
:1003F00021F480610160016841F48051016001686D
:1004000021F480510160016841F48061016070470E
:10041000003C0240AF490A6822F440720A600A6850
:1004200042F004020A600A6842EA002040F4803088
:1004300008607047A74A136823F440731360136879
:100440001360136843F0010313600170704700BF2D
:1004500010B5A0490C6824F440740C600C6844F496
:1004600040740C600C6844F001040C60026043604E
:1004700010BD00BF974A136823F4407313601368DC
:1004800043F480731360136843F001031360018029
:10049000704700BF8F4A136823F4407313601368DA
:1004A00043F400731360136843F0010313600160A9
:1004B000704700BF32480168C90606D58449CA6939
:1004C00042F01002CA61102101600168890606D558
:1004D0007F49CA6942F00802CA61202101600168AF
:1004E000490606D57A49CA6942F00402CA61402128
:1004F00001600168090606D57549CA6942F0020221
:10050000CA61802101600168C90507D57049CA69BF
:1005100042F00102CA614FF48071016001688907ED
:1005200006D56B49CA6942F02002CA610221016006
:10053000704700BFF8B5044665480021104EC16100
:1005400000F02CFA0546671C3068C00309D5002F5F
:10055000FAD024B100F022FA401BA042F4D90320C3
:10056000F8BD3068C0071CBF01203060306810F44F
:10057000F97F03D0FFF79EFF0120F8BD0020F8BDF2
:100580000C3C0240B0B5044600F008FA05460548A8
:10059000611C007818BF044400F000FA401BA04220
:1005A000FAD3B0BD300000202DE9F843DFF82081F8
:1005B000054698F81800012801D102263EE00120E6
:1005C00088F818004CF250308946FFF7B3FF064612
:1005D00088BB4FF0FF30C9F8000028683D4C012867
:1005E0000CD1287CFFF716FF4CF25030FFF7A2FF2A
:1005F0000646206820F0040020601AE0A86807463C
:10060000E9680844874210D2297C3846FFF7BCFECF
:100610004CF25030FFF78EFF0646206820F0FA00BB
:10062000206026B9A8680137EAE7002601E0C9F88A
:100630000070FFF7C5FE002088F818003046BDE8BE
:10064000F88300BF2348016841F0004101600020A9
:10065000704700BF2DE9F041DFF87480074698F835
:100660001800012804BF0220BDE8F081012088F8AD
:1006700018004CF250301E4614460D46FFF75AFF44
:1006800008BB022F07D0012F0AD077B9E1B2284664
:10069000FFF7D0FE0EE028462146FFF7FBFE09E0FB
:1006A000A1B22846FFF7E6FE04E02846224633467C
:1006B000FFF7CEFE4CF25030FFF73CFF05490A68C9
:1006C00022F001020A60002188F81810BDE8F081CC
:1006D000E00A0020103C02400648C168B1F1FF3F2B
:1006E000C4BF002070470449016004490160C0682C
:1006F000C00F7047043C024023016745AB89EFCD32
:100700002DE9F04F924A4FF0070A9042914A08BFF4
:100710004FF0040A02444FEAB223042B38BF4FEAD9
:10072000B22A8D4A4FF000094FF0010C4FF00F0E26
:10073000A2F57E7B4FF000080027102F08BFBDE810
:10074000F08F0CFA07F20A4242D009F00C0CBD08F7
:100750000EFA0CF45BF825E00AFA0CF30EEA040634
:100760009E4214D15BF82530A3434BF825307A4BD9
:100770001C461B6893432360636893436360A368CC
:100780009343A360754B1C461B689343236003236C
:10079000046803FA08F36FF003059C4305EA570564
:1007A000046005444FF00F0E09F01C042E6A0EFA87
:1007B00004F426EA04042C628468D2439C438460D7
:1007C00044684FF0010C22404260C2689A43C26004
:1007D00009F1040908F102080137AEE72DE9F84FE5
:1007E0005B4A4FF0070A90425A4A08BF4FF0040A8A
:1007F00002444FEAB223042B38BF4FEAB22A4FF02B
:10080000010B4FF00F094FF000084FF0000E0022CF
:10081000102A08BFBDE8F88F0F680BFA02F63742BE
:1008200000F090804F6847F01004122C12D16FF046
:10083000030303EA520303440EF01C041F6A09FA7F
:1008400004FC27EA0C0C0F6907FA04F444EA0C04D0
:100850001C624F680324056807F0030304FA08F4D8
:1008600003FA08F3A5432B436FEA040C122F03602D
:1008700013D80BFA07F313F0061F0ED08368CC6869
:1008800003EA0C0304FA08F423438360C7F300135C
:1008900044689340B44323434360C3688C6803EACD
:1008A0000C0304FA08F42343C360FB004AD5002379
:1008B00000932B4B284F1C461B6822F0030543F482
:1008C000804323602368BC4603F4804300933D4487
:1008D000009F244F0EF00C0309FA03F4B946EF59B8
:1008E0000AFA03F327EA0404234345F80930DCF845
:1008F00000304D6843EA0604EF0358BF23EA0604BC
:10090000CCF80040DCF80430AF0343EA060458BFDB
:1009100023EA0604CCF80440DCF80830EF0243EA8E
:10092000060458BF23EA06040C4BCCF808401F46C7
:100930001B684FF00F0943EA0604AD0258BF23EAD3
:1009400006043C6008F102080EF1040E01325FE774
:10095000001002400000FEBF003C01400C3C014082
:100960004438024008FCFFFF0069084018BF01201E
:10097000704742690A408A4208BF09048161704792
:10098000002A08BF0904816170470000024800681E
:100990006FF31F30704700BF002004E00548006877
:1009A000704700BF1F48034900780A681044086078
:1009B000704700BF040F002080B50B48016841F468
:1009C00000710160016841F480610160016841F4D7
:1009D00080710160032000F06FF8002000F006F83D
:1009E00000F024F8002080BD003C024070B50D4EA0
:1009F000044630784FF47A71B1FBF0F00A49096887
:100A0000B1FBF0F001F0F0F801250F2C08D838B94F
:100A10004FF0FF3021460022002500F031F87460CD
:100A2000284670BD300000206800002082B0002001
:100A30000B4901904A6842F480424A604A6802F4D5
:100A400080420192019A0090086840F0805008604E
:100A5000086800F080500090009802B0704700BF16
:100A600040380240002808D400F01F01012202FA99
:100A700001F1024A400942F82010704700E100E00D
:100A8000B0B5134B4FF0FF351B68C3F30223DC1ED8
:100A900083F0070338BF0024042B28BF042305FA82
:100AA00003F3994305FA04F3A1409A431143BDE8C7
:100AB000B04002F0A5BC00BF05494FF6FF030A682D
:100AC0001A4060F30A22034810430860704700BFD1
:100AD0000CED00E00000FA0502F0A4FC704700688D
:100AE000416200207047B0B50068436AB1B1846AC2
:100AF000013903EB14430024E5B2A94207D900EB06
:100B00008505D5F80451013403EB1543F4E700EBF8
:100B1000810043EA0241C0F8041102E043EA0241C5
:100B200081620020B0BDD0F8040401F0ACBCC1EB80
:100B3000C10200EB8202926CD0F8040401F005BC03
:100B4000C1EBC10200EB8202D2F80822D0F8040403
:100B500001F05ABCD0F8040401F097BC10B504466B
:100B600001F00F00090609D4C0EBC00104EB8101BC
:100B7000002281F8FD2101F5FE7107E0C0EBC00104
:100B800004EB8101012281F83D203C31087094F88A
:100B9000BC03012804BF022010BD012084F8BC035F
:100BA000206802F03BF8002084F8BC0310BDB0B50B
:100BB0000446626801F00F00904201D9012524E04B
:100BC000090609D4C0EBC00104EB8101002281F8C1
:100BD000FD2101F5FE7107E0C0EBC00104EB8101CE
:100BE000012281F83D203C31002508708D7094F879
:100BF000BC03012801D1022507E0012084F8BC03D1
:100C0000206802F0D9F984F8BC532846B0BDB0B5CD
:100C1000044601F00F00090609D4C0EBC00104EB43
:100C20008101002581F8FD5101F5FE7107E0C0EB5F
:100C3000C00104EB8101012581F83D503C318A60FF
:100C4000CB7008704A7802B1C880022B04BF002024
:100C5000087194F8BC03012804BF0220B0BD012034
:100C600084F8BC03206801F02DFF002084F8BC0349
:100C7000B0BDB0B501F00F04C4EBC40100EB8105B9
:100C80000021C5E98431C5F8082285F8FD1185F8F1
:100C9000FC41036905F5FE71012B08BFC5F80C2264
:100CA0000068DAB214B102F0BBF901E002F0E6F834
:100CB0000020B0BDB0B50446406801F00F05854284
:100CC00084BF0120B0BD080609D4C1EBC10004EB0C
:100CD0008000002180F8FD1100F5FE7108E0C5EBF1
:100CE000C50004EB8000012180F83D1000F13C01BB
:100CF00001200D70887094F8BC23012A04BF0220E3
:100D0000B0BD84F8BC03206802F06EF92DB9217CD7
:100D1000206804F5717202F023F9002084F8BC0306
:100D2000B0BD70B501F00F04C4EBC40100EB810548
:100D3000294601F83C4F0026C1E905360123CA6067
:100D40004B700369012B08BFEA640068DAB214B182
:100D500002F066F901E002F091F8002070BD000099
:100D60002DE9F04F87B081460068059002F038FA0F
:100D700010B107B0BDE8F08FD9F8000002F05CFABE
:100D80000028F6D0D9F8000002F056FA0146D9F84A
:100D90000000890703D5416901F00201416102F0B9
:100DA0004BFA000340F1D580D9F8000002F023FA95
:100DB000064609F5057A09F571704FF0000B4FF4FE
:100DC00030680690002E00F0C480F00700F0B98073
:100DD000D9F800005FFA8BF5294602F025FA07469C
:100DE000C0075ED00598012140448160D9F8000019
:100DF00008EB0004016CA068D9F81020012A28D162
:100E0000020735D482064AD410F0280F49D1E44AAB
:100E1000914202D310F400403ED15AE9040101444A
:100E20004AF80C1C21696FF3DF41401ACAF8000030
:100E300048462946FFF784FEB8F5306F31D1D9F81E
:100E4000100270BBD9F80000069A012102F088F860
:100E500027E0D34AFF32914205D101041CD4800619
:100E600044BF2020A06048462946FFF769FE18E0ED
:100E7000CB4A914205D310F400401CBF4FF4004010
:100E8000A060484600F08EFBD9F80000069A0121C8
:100E900002F066F8082003E04FF4004000E0202054
:100EA000A060380730D5D9F8001008EB01000C6CB1
:100EB0008168D9F81020012A03D1B94A944204D29A
:100EC0000DE0B74AFF32944209D111F4004106D037
:100ED0004FF400418160484600F064FB06E048465C
:100EE00000F060FBAE480138844209D9D9F81000FF
:100EF000012805D1D9F80000069A012102F030F846
:100F00000598082140448160F80603D50598102112
:100F100040448160B8060DD5D9F81000012805D1EC
:100F2000D9F80000069A012102F01AF8059820214C
:100F300040448160B80404D505984FF40051404402
:100F400081600AF11C0A08F1200876080BF1010BF8
:100F500038E7D9F8000002F06FF9400340F1B8809B
:100F6000D9F8000002F040F9044609F571700190CB
:100F70000598002700F510660296002C00F0A88066
:100F8000E00700F0A280D9F80000F9B2069102F063
:100F900039F90546C0072DD0059907F00F00012348
:100FA0000A46D1F8341803FA00F021EA0000C2F82A
:100FB000340806EB47108360D9F81000012807D1E8
:100FC000C7EBC70009EB8000D0E91112114481641E
:100FD00006994846FFF7ABFD67B9D9F8100001281C
:100FE00008D1D9F8500028B9D9F80000019A012198
:100FF00001F0B6FF280742BF06EB471008218160C9
:10100000E80642BF06EB471010218160680642BF28
:1010100006EB471040218160A80742BF06EB47104E
:1010200002218160280650D5C7EBC70009EB800A72
:10103000D3465BF8500FD84658F8042F904244D35B
:10104000D9F800505AF8441F04943B46841A8C4245
:1010500088BF0C4605EB43114F4601F510690AF1B4
:101060000406039317E03C7CDAF800303168009402
:10107000841A9C4288BF1C46069AA3B2284602F0F6
:10108000ADF9306820443060D8F800000219C8F883
:101090000020DBF80000D9F81830E11C9BB2B3EB5C
:1010A000910F28BF9042DED8B946049CDDE9026763
:1010B00090420AD807F00F00012101FA00F0D5F89C
:1010C000341821EA0000C5F834086408013754E7F1
:1010D000D9F8000002F0B0F8002802D4D9F80000D6
:1010E0001CE005980146D0F8040820F00100C1F882
:1010F000040899F8F403012807D1002089F8F403C3
:1011000048460021FFF7EAFC02E0484600F02EFACC
:10111000D9F80000416901F00041416102F08CF80A
:10112000000502D4D9F800000DE00598D0F80808B1
:10113000C00702D0484600F077FAD9F800004169AC
:1011400001F40061416102F077F8C00402D4D9F8DB
:10115000000054E0059C1021D4F8040820F00100A0
:10116000C4F80408D9F8000002F01CF8D9F80420EB
:1011700004F5106104F500604FF67F3392B18B6087
:101180000C68013A24F400140C60C1F80832D1F85C
:10119000004224F40014C1F800422031EEE700BF01
:1011A0000B30544FC16941F00111C161D9F83010C1
:1011B00041B1D0F8841041F00B01C0F8841000F167
:1011C000440106E0416942F22B021143416100F102
:1011D00010010A6842F00B020A60016809F5717299
:1011E00021F4FE610160D9F8000099F8101001F0B7
:1011F000B7FED9F80000416901F48051416102F065
:101200001BF80146D9F8000089041AD501F098FCB2
:10121000D9F8000001F0D6FFC9F80C00D9F8005049
:1012200000F03EFB99F80C200146284602F03CF8FD
:10123000484600F089F9D9F80000416901F40051ED
:10124000416101F0F9FF0146D9F80000C9063FD518
:10125000816921F0100181610598046AC4F343405B
:1012600004F00F0506281CD002282BD147F6F07099
:10127000044027D0C5EBC50009EB8005D5F808125E
:101280000598220901F0DCFFD5F80802D5F8141200
:1012900000EB1410C5F8080201EB1410C5F8140295
:1012A00010E0059809F57171082201F0C9FFC5EB3E
:1012B000C50009EB8000D0F81412C4F30A121144DF
:1012C000C0F81412D9F80000816941F01001816161
:1012D00001F0B2FF000702D4D9F8000008E0484648
:1012E00000F048F9D9F80000416901F008014161B6
:1012F00001F0A2FFC00202D4D9F8000009E048467C
:10130000002100F03AF8D9F80000416901F4801199
:10131000416101F091FF800202D4D9F8000009E098
:101320004846002100F02DF8D9F80000416901F489
:101330000011416101F080FF400002D4D9F80000A3
:1013400008E04846FFF7EFFBD9F80000416901F0DB
:101350008041416101F070FF40077FF50AADD9F887
:1013600000004468610704D54846FFF7F3FBD9F84D
:101370000000416821434160FBE4D0F8040401F01F
:10138000CFB8D0F8040401F0CDB82DE9F04F8BB000
:10139000002800F087800446056890F8BD0328B94E
:1013A000002084F8BC03204600F08CF8032084F869
:1013B000BD03E86BC0055CBF00202061206801F020
:1013C00057FD206804F1140E0A90D4E90C5004F182
:1013D000040B9EE8C05004F1240A9BE80E089AE82A
:1013E0000007CDE9085002A8CDE900B680E880509A
:1013F00005A880E800070A9801F0BEFB00284ED13E
:1014000020680021002501F028FF616801200022EA
:10141000D3B2994210D9C3EBC30604EB8606A6F8F3
:10142000423086F83C2086F83D003565C6E9115506
:1014300086F83F500132EBE700200022D3B29942F8
:101440000FD9C3EBC30304EB8303C3F81002C3E952
:10145000810083F8FF0183F8FC2183F8FD0101324C
:10146000ECE7A06804F1140E0A90D4E90C50D4E91A
:10147000033B9EE8C05004F1240A22689AE8000762
:10148000CDE9085002A8CDE900B680E8805005A853
:1014900080E8000710460A9A01F014FC38B10220D7
:1014A00084F8BD03012528460BB0BDE8F08F002568
:1014B000012084F8385084F8BD03206801F0F6FB61
:1014C000F1E70000B0B586B0044601A81421FEF78C
:1014D000C9FE2068B0F1A04F2FD10025184C00950F
:1014E000206801A940F001002060206800F00100A0
:1014F00000900A2005900320CDE9035002200290BD
:101500004FF4C050019000980E48FFF767F96068EB
:10151000012140F08000606000956069002240F485
:1015200080406061606900F4804000900098432032
:10153000FFF7A6FA4320FFF795FA06B0B0BD00BF4B
:10154000303802400000024010B50446C06802284E
:1015500018BFFEF718FFD4F80404012101F033F896
:10156000D4F80404BDE8104000F0F3BFD0F8040440
:1015700001F017B8D0F8040401F019B810B504460A
:1015800090F8BC03012804BF022010BD012084F89C
:10159000381084F8BC03206801F076FE002084F83F
:1015A000BC0310BDD0F8042400F57171104601F0A1
:1015B00016B810B5044690F8BC03012804BF0220F9
:1015C00010BD0121206884F8BC13A16A012906D14D
:1015D000A169012903D0816B41F48031816301F05D
:1015E00059FB206801F0CAFD002084F8BC0310BD3F
:1015F000B0B5044690F8BC03012801D1022510E0E3
:10160000012584F8BC53206801F032FC206801F009
:10161000C3FE18B9206801F049FB0025002084F8BA
:10162000BC032846B0BD000010B50446D0F8040441
:1016300001F01BF82068D0F8001E41F00101C0F84D
:10164000001E206A20B10348016841F006010160D4
:1016500010BD00BF10ED00E0F8B50446006810F0C2
:10166000050F26D0424F00208B4E3860FFF796F9C9
:1016700005463068000105D5FFF790F9401B0228A8
:10168000F7D934E0221D07CA40EA811040EA02700F
:10169000C6F8840001203860FFF780F905463068FD
:1016A000000105D4FFF77AF9401B0228F7D91EE0A4
:1016B0002068810754D50020774E0090306C2D4F64
:1016C00040F080503064306C00F080500090009802
:1016D000386840F480703860FFF760F90546386874
:1016E000C00506D4FFF75AF9401B0228F7D903209A
:1016F000F8BD306F10F440701FD0216901F44071C3
:1017000088421AD0306F1C4901220A60002220F45E
:1017100040700A603067306FC0070ED0FFF73EF9A7
:10172000054641F28837306F800706D4FFF736F957
:10173000411B0320B942F6D919E020682169B3683A
:101740000E4A23F4F81301F440750A40B5F5407FC2
:1017500008BF1343B360326F6FF31F31114331671A
:10176000000703D5207D0449C1F8A0030020F8BD7F
:101770006800474200700040400E4742FFFCFF0FE8
:101780002DE9F041002800F08380434B0446D3F854
:101790000004884600F00F00884207D283F80084D6
:1017A000D3F8000400F00F00404571D12068810794
:1017B00011D5410703D5996841F4E05199600107BB
:1017C00003D5996841F460419960A1689A6822F054
:1017D000F00211439960C0072AD06068811E022977
:1017E00003D21968890109D452E0012803D119688C
:1017F000890303D44CE01968890749D599681D46C7
:1018000021F0030108439860FFF7C8F8064641F24B
:1018100088376068A9682B4601F00C01B1EB800F96
:1018200006D0FFF7BBF8801BB842F2D9032430E0A2
:10183000D3F8000400F00F00404507D983F8008476
:10184000D3F8000400F00F00404521D12068410783
:1018500005D5E1689A6822F4E052114399600007C7
:1018600006D52069996821F4604141EAC00098607A
:101870001C4600F01BF8A168084AC1F30311515C33
:101880000024C840084908600020FFF7AFF800E0D6
:1018900001242046BDE8F08100380240E43E000803
:1018A00001480068704700BF6800002010B5134C65
:1018B000606800F00C00082804D0042814BF104809
:1018C000104810BD2268206802F03F0240020D4817
:1018D0005CBF42F20040C0F2F40021680023C1F373
:1018E0008811A0FB0101FEF773FC21680222C1F3FD
:1018F000014102EB4101B0FBF1F010BD04380240A0
:101900000024F40040787D012DE9FC41002800F01E
:10191000958004460078B14EC0072ED0B06800F024
:101920000C00042823D0B06800F00C00082802D175
:10193000706840021BD46768B7F5803F07D03068F5
:10194000B7F5A02F40F00E8140F480203060306861
:1019500040F480303060FFF721F80546306880039E
:101960000BD4FFF71BF8401B6428F7D9A9E03068B7
:10197000800302D56068002860D0207880072CD5CD
:10198000B06810F00C0F07D0B06800F00C00082809
:1019900009D17068400206D43068800716D5E06827
:1019A000012813D04AE0E1688D48002900F0A980A1
:1019B00001210160FEF7F2FF05463068800705D47B
:1019C000FEF7ECFF401B0228F7D97AE02069316866
:1019D00021F0F80141EAC00030602078000721D5ED
:1019E000606978B17E480121C0F8801EFEF7D6FFFD
:1019F0000546706F800715D4FEF7D0FF401B022804
:101A0000F7D95EE076480021C0F8801EFEF7C6FFD9
:101A10000546706F800705D5FEF7C0FF401B022802
:101A2000F7D94EE0207840070BD4A769002F00F0CB
:101A3000D180B06800F00C00082845D10120BDE835
:101A4000FC81306C4FF00008C0000CD4CDF804804D
:101A5000306C4FF0010840F080503064306C00F082
:101A60008050019001985F4F3868C0050FD43868E6
:101A700040F480703860FEF791FF05463868C00575
:101A800005D4FEF78BFF401B0228F7D919E0A768A1
:101A9000012F05D0306F052F43D140F0040030678F
:101AA000306F40F001003067FEF778FF054641F2E5
:101AB0008837306F80074CD4FEF770FF401BB84268
:101AC000F7D90320BDE8FC81454900208846086617
:101AD000FEF764FF0546022F09D13068800159D511
:101AE000FEF75CFF411B03200229F6D970E0306845
:101AF00080016FD5FEF752FF411B03200329F6D367
:101B000066E000210160FEF749FF05463068800766
:101B10007FF563AFFEF742FF411B03200229F5D991
:101B200056E020F001003067306F20F0040030678D
:101B3000FEF734FF0546002FB9D141F28837306FE8
:101B4000800706D5FEF72AFF411B0320B942F6D9CC
:101B50003EE0B8F1000F3FF468AF306C20F08050E9
:101B6000306462E720F480303060306820F48020F8
:101B70003060FEF713FF0546002F7FF4EFAE05E05F
:101B8000FEF70CFF411B0320642921D83068800335
:101B9000F6D4F2E61C341FCC084340EA8210D90385
:101BA0004FF6FF72914340EA0460A1F5803108438B
:101BB00070600120C8F86000FEF7F0FE044630684F
:101BC000800107D4FEF7EAFE011B03200229F6D9A3
:101BD000BDE8FC810020BDE8FC8100BF0038024068
:101BE0000000474200700040411E0020B0EB116F22
:101BF0001CBF01207047214AF023516002490B703D
:101C0000072190601160704723ED00E0FEE7F0B51A
:101C10005200002337240025AA4208BFF0BD04EB80
:101C20001076070FB0F1204F38BF07F130064E5540
:101C300045F001068B5502350001EDE718B54FF46C
:101C40007A710091C168490615D44FF0FF31C16027
:101C5000C3680A4A00215B06009B0DD463B1136878
:101C6000DB0302D5009B013B0093C368009C002C62
:101C700008BF0121EFE70021C8B218BD10E000E065
:101C8000B0B50446CA2060625320606220460D460B
:101C9000FFF7D4FF012801D1012015E007CDA3688B
:101CA00023F040031843A060206947F6FF73984370
:101CB00010432061206920F4FE0040EA01402061C9
:101CC0006FF08000E0600020FF216162B0BD000085
:101CD000F0B587B000261E480696019601681D4C97
:101CE00041F0040101600168012201F00401019149
:101CF0000199019601684FF4005541F0800101609F
:101D00000168012701F080010191019901960168A4
:101D100041F00101016000684FF4005100F0010042
:101D2000019001982046FEF72BFECDE90466CDE92F
:101D3000025702AD20462946FEF750FDA4F500608B
:101D400029460497CDE90276FEF748FD07B0F0BDBD
:101D50003038024000080240BFB50D480D4D016803
:101D6000FF2441F4004101607F2002900020019097
:101D7000A5F1100001A90394FFF782FF286840F441
:101D8000FE002860286864F30E002860BFBD00BF15
:101D9000703802401028004080B50F480F490022DB
:101DA00000F0ACFA08B1FEF7EEFA0B480C4900F06F
:101DB00079FC08B1FEF7E7FA07480A4900F01BF979
:101DC00008B1FEF7E0FA044800F080FC18B1BDE865
:101DD0008040FEF7D8BA80BD180400204C000020D7
:101DE0006C00002040010020FEE770470148FEF72C
:101DF000B7BF00BFB406002070477047FEF7D2BDE2
:101E000070B598B001AC0025201D14211195CDE9C5
:101E10000F55FEF727FA214807950168022641F081
:101E200080510160006800F08050079007981C48BE
:101E30000795016841F440410160006800F44040AA
:101E4000079007201790042016904FF4A870159063
:101E5000192014904FF480001390012012960E90D8
:101E60004FF480300D9005200C9007980CA8FFF7D8
:101E70004BFD4FF480500B950A900F20CDE908657B
:101E8000079007A80221FFF77BFC4FF480700590B4
:101E900020460196FFF7E0FB18B070BD40380240C5
:101EA0000070004010B50E480F4CD0F8801041F47F
:101EB0007001C0F880100B490A6842F001020A6004
:101EC00000228A600B6823400B60084B4B600B6854
:101ED00023F480230B60CA604FF00061016010BDE5
:101EE00008ED00E000380240FFFFF6FE103000244D
:101EF000D0F89002002180F8501000207047B0B553
:101F0000D0E9A452044628786978D26890472046E0
:101F100001212A46402300F013FB0020B0BDB0B5DC
:101F20008121044600F008FA002520460121E562DF
:101F300000F002FAC4F85851D4F8900248B1D4F82D
:101F4000940280688047D4F8900201F06DFFC4F8D5
:101F500090520020B0BD10B5D0F89042E16C01293C
:101F600008D1D0F8940222786178C3681046984767
:101F70000020E064002010BD0A2101800048704765
:101F8000080100202921018000487047A40000209A
:101F90002921018000487047D000002029210180BC
:101FA000004870471401002070B5812103224023AE
:101FB000054600F0B9FA01242846012103224023F6
:101FC000EC6200F0B1FA5420C5F8584101F054FF1A
:101FD000C5F8900268B1002480F850400646D5F854
:101FE000940240688047284601213246402300F091
:101FF000A7FA204670BD00290EBF0220C0F8941237
:1020000000207047B0B513460A4690F874120329B1
:102010000AD1D0F89042012194F850502DB984F89B
:102020005010812100F02AFB00210846B0BD0000BD
:102030001CB50022D0F89032ADF806200A7812F0D4
:1020400060020FD0202A38D14A78023A092A34D8BF
:10205000DFE802F0053E333333333337454803F1CD
:10206000440137E04A780B2A0CD0062A11D00A2AFC
:102070001CD012BB90F87422032A1ED10DF1060168
:10208000022228E090F87422032A16D188789864F6
:1020900023E0CA78212A28D0222A2CD1CA88142ADF
:1020A00028BF1422D0F89412096814E090F8742222
:1020B000032A02D103F148010CE000F038F80220B5
:1020C0001CBD0122DA64CA88194600F03BF804E01E
:1020D00003F14001012200F04DF800201CBDC8783A
:1020E0005864FAE788781864F7E7CA880349092A28
:1020F00028BF0922EFE700220021ECE7FC000020C6
:1021000080B5D0F88C2252689047002080BD80B501
:1021100013460A46002100F013FA002080BD80B566
:1021200013460A46002100F0A9FA002080BD10B530
:102130008021044600F07EFA20460021BDE81040D0
:1021400000F078BA80B513460A460321C0E952333D
:10215000C0F86C12002100F0F3F9002080BD80B5BA
:102160000521C0F86C1200210022002300F0E8F9DC
:10217000002080BD80B513460A460221C0E907331E
:10218000C0F86C12002100F079FA002080BD80B503
:102190000421C0F86C1200210022002300F06EFA26
:1021A000002080BD10B5314C0A4603A0214600F046
:1021B00079F8204610BD00BF53544D3332204849B2
:1021C0004420426F6F746C6F6164657220436F6E60
:1021D000666967001220088000487047500100209F
:1021E00010B5224C0A4603A0214600F05BF82046B9
:1021F00010BD00BF53544D33322048494420426F34
:102200006F746C6F6164657220496E74657266618B
:1022100063650000042008800048704764010020C6
:1022200010B5124C0A4603A0214600F03BF82046A8
:1022300010BD00BF576541637400000010B50B4C22
:102240000A4603A0214600F02DF8204610BD00BF2D
:1022500057654163742053544D333220484944201C
:10226000426F6F746C6F616465720000D80100206A
:10227000B0B51A200880094908688A6880180BD010
:10228000074D4C68A91C0822FFF7C1FC05F112019B
:1022900020460422FFF7BBFC0148B0BD107AFF1FA7
:1022A00068010020B0B5D8B100230446257815B1E7
:1022B00001340133FAE7DCB2022303EB4404148057
:1022C0000C70032201240A5502784AB1DCB20A5587
:1022D0009D1C43F001020130D4B200222B46F2E7EC
:1022E000B0BD0000032884BF022070470249C0002F
:1022F00021FA00F0C0B270470002010288B180B537
:10230000D0F88C3213B10023C0F88C3209B1C0F878
:1023100088120121027080F8741200F0C1F80020C8
:1023200080BD0220704780B5D0F89802FEF73FFCD0
:10233000BDE88040FFF7D6BF80B5D0F89802FEF721
:102340000DFCBDE88040FFF7CDBFB0B5044669B1D4
:10235000D4F88C0242693AB194F87402032803D18C
:10236000204690470020B0BD0220B0BDD4F86C02DA
:1023700080B104280ED002283DD1D4E90810814252
:102380000DD9081A83B22062204611461A46FFF77B
:10239000C6FE18E02046802100F04CF92BE0E169F0
:1023A000814217D3B1FBF0F202FB101090B9D4F8C0
:1023B000700281420ED22046002100220025FFF744
:1023C000AEFEC4F87052204600210022002300F027
:1023D000B7F810E0D4F88C02C16829B194F87402FF
:1023E000032801D1204688472046802100F022F9A9
:1023F0002046FFF7B4FE94F878120020012904BFAC
:1024000084F87802B0BDB0BDB0B5044661B1D4F86F
:102410008C02826932B194F87402032802D12046FA
:1024200090472DE002252CE0D4F86C020025052809
:1024300012D0032825D1D4E95310814213D9091AA7
:10244000C4F84C11814238BF084683B22046114679
:102450001A46FFF75CFE13E020460021C4F86C52D8
:1024600000F0E8F80DE0D4F88C02016929B194F885
:102470007402032801D1204688472046FFF787FED3
:1024800000252846B0BD0020704780B5012180F8A6
:102490007412D0F88C22017952689047002080BDD8
:1024A00010B5017841BB15490222C0F89812C1F855
:1024B00004040020C1E90B00C1E90620C1E90800BD
:1024C000C1E9032004204FF0A042C1E900200846E2
:1024D000FEF75BFF08B1FDF756FF084C8021204650
:1024E000FEF7FDFA204600214022FEF7FCFA2046C6
:1024F00001218022FEF7F7FA002010BDB40600206B
:10250000D0F8980201F07F02C2EBC20200EB820019
:1025100000F13E02090658BF00F5FF7210787047BF
:10252000002070470020704710B51446D0F898027C
:102530001A462346FEF76BFBBDE81040FFF7D2BEFC
:1025400080B5D0F89802FEF794FBBDE88040FFF715
:10255000C9BEF8B5002100224023044600254026CC
:10256000FFF7E2FF01272046802100224023C4F824
:102570005061C4F84471FFF7D7FF84F87472666243
:10258000A761C4F86C52C4F87C526560D4F890021C
:1025900028B1D4F88C0200214268204690470020E0
:1025A000F8BD90F8751280F874120020704780B55D
:1025B00090F87412032904D1D0F88C12C96901B1C2
:1025C0008847002080BD01740020704780B5D0F896
:1025D0009802FEF7D3FFBDE88040FFF783BEB0B599
:1025E00000F520750446284600F051F8B4F886122C
:1025F0000120C4E99B0194F8800200F01F01022928
:1026000007D001290AD071B92046294600F064F8A4
:102610000EE02046294600F08FF909E020462946C1
:1026200000F029FA04E000F08001204600F002F8F2
:102630000020B0BD80B5D0F89802FEF73BFBBDE8A6
:102640008040FFF74FBE80B5D0F89802FEF7B1FF8B
:10265000BDE88040FFF746BE80B5D0F89802FEF78F
:10266000C7FFBDE88040FFF73DBE90F8741280F8C8
:102670007512042180F874120020704780B5D0F8DC
:102680009802FEF74EFBBDE88040FFF72BBE0A78AC
:1026900002704A7842704A8842808A888280C9885B
:1026A000C180704700290EBF0220C0F88C120020A4
:1026B000704780B5D0F88C2232B11268904700285C
:1026C00018BF0120400080BD022080BD80B5FFF70B
:1026D000BAFF002080BD0000BCB5044608780D4656
:1026E00010F060000BD0402802D0202840F0DE809F
:1026F000D4F88C022946826820469047D9E0687851
:10270000092800F2D380DFE800F0051BD127D15261
:1027100075D12F3D94F874020138022800F2C6806A
:10272000E888022840F0C280D4F87C020322002806
:1027300008BF0122214641F80C2F2046022274E0F6
:1027400094F874020138022800F2B08068880128E9
:1027500040F0AF80002004E06888012840F0A980A4
:102760000120C4F87C02C8E0E888012840F09E807F
:1027700094F87402411E022952D20020214641F8E9
:10278000080F50E068886B4DC1B20229287080F0B4
:102790008D8094F8740203284AD0022840F06680A5
:1027A000002900F0AA80032084F874024AE0A88877
:1027B000002840F07B80E888002840F07780688817
:1027C0007F2800F2738094F87412032900F06E8061
:1027D00000F07F052046294684F87652FFF7F6FE82
:1027E0002046FFF7D4FC002D0CBF0120022084F806
:1027F00074025EE068884FF0FF3101EB102106297A
:1028000054D8DFE801F0043B265353485100D4F874
:102810008812207C0A680DF10601904701465CE0B1
:10282000032843D1211D20460122FFF7A3FC40E0ED
:10283000002940D0606888425FD0C1B22046FFF7CF
:102840005FFC297820466160FFF733FF02282DD016
:1028500053E0C0B2052829D8DFE800F00353585DE3
:102860006267D4F88812207C4A68D4E72046FFF7D4
:102870005EFC29782046FFF743FC1AE0217CD4F85F
:102880008C0200290CBF816AC16A0DF106008847DD
:102890000146022020E0207C40B9D4F88C02416B34
:1028A0000DF106008847B9E7207C68B12046FFF7A4
:1028B0003EFC0020BCBD00206060022084F8740251
:1028C0002046FFF71DFC18E0D4F88C02016B0DF1D7
:1028D00006008847014607204870BDF8060048B149
:1028E000EA883AB1904238BF02462046ADF8062049
:1028F000FFF740FCE8880028DBD12046FFF747FCC3
:10290000D7E7D4F88812207C8A6884E7D4F8881244
:10291000207CCA687FE7D4F88812207C0A697AE7AD
:10292000D4F88812207C4A6975E7D4F88812207C94
:102930008A6970E7D4010020B0B5044608780A46D9
:1029400010F060000AD0402801D0202875D1D4F8BA
:102950008C02114683682046984771E0202807D1F1
:10296000D4F88C02114683682046BDE8B040184771
:1029700050781179A8B101282ED003285DD194F8A0
:10298000740203282CD15088002863D141F08000C4
:1029900080285FD0D08800285CD12046FFF74AFE0F
:1029A00058E094F87402032828D0022845D141F059
:1029B0008000802841D101F07F0000EB800004EB13
:1029C000800000F11402090658BF00F5A072002033
:1029D0001060204611464AE094F87402032831D072
:1029E00002282AD141F08000802826D02046FFF717
:1029F00021FE20468021FFF71DFE21E001F00F029D
:102A000002EB820204EB820211F0800014BF926993
:102A1000D2F844218AB101F07F0202EB820204EB7A
:102A2000820202F5A075002841F0800018BF02F173
:102A30001405802812D1002016E02046FFF777FB0E
:102A40000020B0BD50880028FAD1480602D02046A8
:102A5000FFF769FC2046FFF79AFBF1E72046FFF7F6
:102A60004FFD0028E7D00120286020462946022299
:102A7000FFF780FBE4E7B0B5044608780D4610F098
:102A8000600018BF402815D194F87402013802285C
:102A900012D8A88810F0FE0F0ED1D4F88C02294667
:102AA00082682046904750B9E88840B92046FFF731
:102AB0006EFB04E02028E7D02046FFF738FB00201B
:102AC000B0BD0000B0B50A784C7802F00F030125C4
:102AD00005FA03F3012C18D1D0F81C482343C0F8A1
:102AE0001C38530100F51060C458240424D41C5829
:102AF0008D68C9786FF3DF2545EA8252224342EAA6
:102B000081410E4A1143195016E0D0F81C48520179
:102B100044EA0343C0F81C3800F5306083581B04B6
:102B20000AD413588C68C9786FF3DF24234343EA2F
:102B30008141024B194311500020B0BD00800010AC
:102B4000D0F8001940F2FF729143C0F80019D0F894
:102B5000081801F00601042905D1D0F8001941F048
:102B60000301C0F80019D0F8041841F48071C0F8CE
:102B7000041800207047000070B504460698049DB4
:102B8000012816D1A16B184A21F48031A163E168B4
:102B90000D981140E160E168012821F44011E160E5
:102BA00003D1E06840F48010E060204600F01EF899
:102BB0000FE0E0680A9E40F04000E060204600F030
:102BC00015F8A16B002E14BF21F4803141F480313F
:102BD000A163012D07D1A16841F00601A160A168A0
:102BE00041F02001A16070BDBFFFBDFF0A490A4648
:102BF000013A0FD00369B3F1FF3FF9DC026942F0FB
:102C000001020261013905D00269D20704BF002028
:102C10007047F7E703207047410D0300B0B50A780D
:102C20004D7802F00F04012101FA04F31749012D38
:102C300011D1D0F83C489C43C0F83C48144C64EA9D
:102C40000303D0F81C482340C0F81C3800EB4210A6
:102C500000F5106014E0D0F83C5801F1707125EADD
:102C60000343C0F83C384FF48033A340D0F81C48ED
:102C700024EA0303C0F81C3800EB421000F5306072
:102C80000268114001600020B0BD00BF007833EC45
:102C90000000FFFF80B5D0F8041821F00201C0F851
:102CA00004180320FDF76EFC002080BD80B5D0F82D
:102CB000041841F00201C0F804180320FDF762FC7B
:102CC000002080BD2DE9F84F8346DDF84490DDE912
:102CD0000C08DDF828A00D4641210022502903D020
:102CE0004BF821200131F9E7B9F1000F0AD0DBF8E8
:102CF000001021F40011CBF80010DBF8381041F47B
:102D000000210FE0DBF8381041F40011CBF8381047
:102D1000DBF8381021F40021CBF83810DBF838103C
:102D200021F48021CBF838100021CBF8001EDBF80D
:102D300000180128CBF8001806D1DBF80008002B9A
:102D400018BF40F0010003E0DBF8000840F003008A
:102D5000CBF800085846102100F024FA06465846E1
:102D600000F012FA002130430BF510624FF67F336A
:102D70000026CBF81018CBF81418CBF81C18B54265
:102D80000ED04FF09047002E08BF4FF00067146838
:102D9000013607EAE4741460116193602032EEE7B3
:102DA0000BF5306100224FF67F330026002818BF54
:102DB0000120B5420ED04FF09044002E08BF4FF0D6
:102DC00000640F68013604EAE7740C600A618B60E6
:102DD0002031EEE7DBF81018BAF1010F21F4807111
:102DE000CBF8101810D11E491E4ACBF83018DBF86A
:102DF00030181143CBF8301800214BF8181F6FF032
:102E000080414BF8041C0FE000214BF8181F6FF0B5
:102E10008041BAF1000F4BF8041C05D1DBF800101B
:102E200041F01001CBF80010DBF800100E4AB8F1A9
:102E3000000F41EA0201CBF8001005D0DBF80010CA
:102E400041F00801CBF80010B9F1010F05D1DBF812
:102E50000010064A1143CBF80010BDE8F88F00BF00
:102E6000000180000300010000383C8004000040A5
:102E7000816821F00101816000207047F0B54B7836
:102E800091F800E0012B1DD100EB4E13D3F810692F
:102E90004D69314F314C03F51063BDB326401E61BF
:102EA0001E693E401E618E68B54284BF4E61354644
:102EB0001E6946F400261E6107F100561F692E4068
:102EC0003E432EE000EB4E10D0F8103B224C6FF347
:102ED0001203C0F8103BD0F8103B6FF3DC43C0F88E
:102EE000103B4D6900F53063886805B148611D6984
:102EF00004F1005445F400251D6120401C69012A9D
:102F000040EA0400186112D1C8680EE006EA07051D
:102F10001D611D6945F400251D611D6905EA040652
:102F20000025012A1E6109D1086900B158614FF0DE
:102F300004411868084318600020F0BD1968002D8E
:102F400041F004411960F7D00EF00F01012202FA9E
:102F500001F100F63403ECE7FFFF07E00000F8FFA3
:102F600010B5036C134CA34203D3D0F8003B002BE5
:102F70001ED40023C0F8103BD0F8103B012943F4C5
:102F80000023C0F8103BD0F8103B43F01803C0F802
:102F9000103BD0F8103B43F0C043C0F8103B07D1C2
:102FA000C0F8142BD0F8001B41F08021C0F8001BA2
:102FB000002010BD0B30544F0A784B785201012B82
:102FC00014BF00F5306000F51060835823F400133F
:102FD0008350C97801F0FE01022903D1115841F054
:102FE00080511150002070470A78497800EB421058
:102FF000012904D1D0F8001900F5106003E0D0F8E1
:10300000001B00F530602AB1002903D4016821F0CB
:1030100080410160016841F40011016000207047A7
:10302000F8B54B780C78012B2BD100EB4413D3F877
:1030300010694D6903F51063002D44D06FF312063B
:103040001E611E696FF3DC461E618E68AF19013F79
:10305000B7FBF6F6484F07EAC6461F693E431E61B6
:103060002E461F696FF3DF463E431E61CE78012E68
:1030700034D11E6926F0C0461E611E6946F0005616
:103080002BE000EB4413D3F8104B6FF31204C3F89A
:10309000104BD3F8104B6FF3DC44C3F8104B4D6961
:1030A0008C6803F53063B5B32544013DB5FBF4F5F9
:1030B000314E1F6906EAC546ADB26C433E436FF31D
:1030C000DF441E612EE06FF3DC461E611E6946F48C
:1030D00000261E611E696FF312061E61012A01D1CE
:1030E0000A6926E01E6846F004461E60CE78012E6E
:1030F00035D1D0F80868F6054FF0805658BF4FF02C
:1031000000561F683E431E60C9680092ABB222465B
:1031100000F064F921E01D696FF3DF442C431C616A
:103120004FF400241D69012A44EA05041C6102D100
:10313000CA6802B15A61C97801290AD1D0F80808D1
:10314000C0054FF0805058BF4FF000501968084339
:103150001860186840F0044018600020F8BD002D89
:10316000FBD004F00F01012202FA01F1D0F834285B
:103170001143C0F83418F0E70000F81F816841F0EF
:103180000101816000207047102101610C49013963
:1031900004BF032070470269D2065CBF002070475D
:1031A000F5E700BF8901203101610549013904BFFC
:1031B00003207047026992065CBF00207047F5E764
:1031C000410D0300D0F8080810F0060004BF0020ED
:1031D000704740F004010F20062908BF0220704705
:1031E000406900F001007047D0F81818D0F81C08AA
:1031F000084080B27047D0F81818D0F81C08084072
:10320000000C704710B5D0F81028D0F8344801F001
:103210000F0324FA03F3DB0100EB4110DBB2D0F81B
:1032200008091A43104010BD00EB4111D1F8081BEA
:10323000D0F8140808407047416980690840704719
:1032400010B5033292084FF4805322B1C458013AAA
:1032500041F8044BF9E7084610BD80B5C268012962
:1032600022F0C042C26003D061B94FF0804101E05A
:103270004FF00051C2681143C1603220FDF782F95E
:10328000002080BD012080BDD0F8002801F07F0122
:1032900022F4FE62C0F80028D0F8002842EA0111AA
:1032A000C0F8001800207047022A34D1284A294B60
:1032B0000A449A4202D24FF470512EE0264A274B1C
:1032C0000A449A4202D24FF4605126E0244A254B28
:1032D0000A449A4202D24FF450511EE0224A234B34
:1032E0000A449A4202D24FF4405116E0204A214B40
:1032F0000A449A4202D24FF430510EE01E4A1F4B4C
:103300000A449A4202D24FF4205106E01C4A1D4B57
:103310000A449A420AD24FF41051C26822F4705201
:10332000C260C2681143C16000207047164A174B43
:103330000A449A4202D24FF40051EEE7144A154B68
:103340000A444FF4C0519A4238BF4FF4E051E4E7C9
:10335000405327FF00350C00401E1BFF40420F006A
:1033600000DC0BFF804F1200808CF9FE20D613008A
:1033700060B6E5FE60E3160000D3CEFE40771B008A
:10338000C05BB3FEC091210000CA91FE20753800D9
:10339000E05459FEE09C410010B504460E484FF63B
:1033A0007F3130B12218C2F8E81AC2F8E81C203088
:1033B000F7E70020C4F81008C4F81408C4F81C0883
:1033C0002046FFF7E1FE00B110BD20461021BDE808
:1033D0001040FFF7E7BE00BF20FEFFFF10B5029CC4
:1033E00054B90333120300F580509B0823B151F800
:1033F000044B013B1450F9E7002010BDFEE700002C
:1034000010B5074C00F00F032344044AB0F1FF3F0E
:10341000C8BF83180801187010BD00BF00E400E0A9
:1034200014ED00E00648BFF34F8F064A016801F42F
:10343000E06111430160BFF34F8F00BFFDE700BFA4
:103440000CED00E00400FA0510B5904C0949206825
:103450000840B0F1005F18BF10BD07484FF400519D
:10346000FDF74EF96068216881F30888BDE81040D7
:10347000004700BF0000F82F00080240F8B5FDF734
:103480002BF91E4D1E4E00240020C7B20B2F0DD865
:103490007A59B859904207D0013004D1B9190220A5
:1034A0000023FDF7D7F80134381DEEE7FDF7CAF821
:1034B00020060BD0844800F5006420464FF40051EC
:1034C000FDF757FAC820FDF75DF8F6E709480A4C02
:1034D0000068012120607C48FDF746FA40B1206871
:1034E00041F23421884203D0BDE8F840FFF7ACBF79
:1034F000F8BD00BF9C280040000F0020107AFF1F7D
:10350000F43F00082DE9F04788B0594C2078012895
:1035100040F0AA80574D0021204600F8041B05F119
:1035200008010622FCF7A9FE50B3608852494022E8
:103530000844211DFCF77DFE608840306080608873
:10354000B0F5806F40F09080686800F09FFA68687E
:1035500039210130686000206080484CE01DFCF794
:1035600081FE43F67420A080454820600320A071AE
:1035700044482146402208B0BDE8F047FEF742BD6E
:10358000A07A042870D8DFE800F0030A1A6F2B0035
:1035900010206860012028800020608064E060883E
:1035A00010B1686800F072FA3220FCF7EBFF354882
:1035B000FFF752F808B0BDE8F047FDF78DBAA889CB
:1035C0002E4CA080A8682060FDF7E0F903462E4845
:1035D00031A1008835A20090A01D00F09BFAC7E73A
:1035E000A889DFF898800127A8F80400A868C8F81F
:1035F0000000022007900020039023480697CDE9A1
:1036000004770488FDF768F8204810250DF10C09AF
:103610000DF1080AAEB2A64216D20068013013D0EE
:1036200048465146FCF7C0FF3F2E01D8103503E055
:103630008035402E08BF80250137B8B20590A8B26A
:10364000800200F10060E5E7FCF7FCFF6FF00F007F
:1036500010FA85F208F106000DA100F05BFA0948A6
:1036600041464022FEF7CEFC08B0BDE8F08700BF1F
:103670009001002008000020000B0020D80300204B
:103680005765416318040020227AFF1F004000089C
:1036900025644B4200000000257320307825582017
:1036A000524F4D3A2025644B4200000056312E30D7
:1036B0000000000080B504480121FDF755F90028FD
:1036C00018BF012080BD00BF00000240B0B5834C90
:1036D000207A0E2800F2AE80DFE800F00811202AE0
:1036E000373F4E586068777B859CA40060698047AF
:1036F000002840F09F8000206081012099E06089CF
:1037000001306081E18980B28842C0F093806069B5
:103710008047B0FA80F0400940008AE0607A0002F9
:10372000013080B200F0EEF800206081032080E0DC
:1037300060890130608160698047A18962898A421D
:1037400079D2012876D1042073E0218860894FF670
:10375000FF75A94273D0013075E060890130608146
:1037600060698047218A62898A4266D2002861D1D5
:103770000020608107205CE0607A0002053080B2A2
:1037800000F0C0F8607A000202304EE06188608983
:103790004FF6FF75A94263D0013065E0606980474C
:1037A000012847D100206081092042E06089013072
:1037B0006081E18980B288423CD3606980470821FA
:1037C000012808BF0A212172B0BD607A00020430CE
:1037D0002BE0607A0002063080B200F093F80020FF
:1037E00060810C2025E0608901306081606980473C
:1037F000012804BF0D202072618A6089013989B2D5
:10380000814217D2607A0002053080B200F07AF867
:1038100000204CE0A18860894FF6FF75A94230D0A6
:10382000013032E0607A0002033080B200F06AF8C2
:1038300000202072B0BD0B20FBE70620F9E7002135
:103840006181208001206081E18980B28842F1D3CA
:1038500060698047012824D105202072002025E0DE
:1038600000216181608001206081E18980B288420D
:10387000E0D36069804720B36088618908440521EE
:1038800027E000216181A08001206081E18980B270
:103890008842CFD36069804701280AD10E20207268
:1038A0000DE0032020722088618908442580608112
:1038B000B0BD0C202072A088618908446081A58079
:1038C000B0BD607A0002073080B200F01BF8002023
:1038D0000821608121726580B0BD00BF1800002002
:1038E000124890F8201090F821208A4204BF00204E
:1038F00070474A1C02F00F0280F8202030F81100B7
:10390000704700BF094991F8212091F8203021F833
:103910001200501C00F00F0081F82100984202BFF5
:10392000901C00F00F0081F820007047BC0A0020B6
:1039300082B0FDF741F8FEF763FAFEF7C9F90220FD
:10394000FCF720FEFFF79AFD6F488046A0F5006067
:10395000019001980121FDF707F840B940464FF466
:103960000051FDF706F83C20FCF70CFEF1E740465D
:103970004FF4005101224FF00109FDF701F8FEF765
:10398000EBF9FEF709FA3F483F4C00214FF0780A67
:103990004FF0010B0160FFF7B5FDFCF7FFFFB042F0
:1039A0002BD0FCF7FBFF0646BBF1010F25D1217898
:1039B000608831B101386080010404BF00202070AC
:1039C00007E0013081B26080B1F5C86F28BF84F88C
:1039D0000090617880B2B0FBFAF04A1C142988BFCD
:1039E0000022C0B2D1B2814240464FF40051627011
:1039F00034BF00220122FCF7C3FFFCF7CFFFB8421F
:103A000004D0FCF7CBFF0746FFF760FEFCF7C6FFCC
:103A1000401B0A28BFD3FCF7C1FF0546FFF760FF34
:103A2000B0F5817FA0801CD0B0F5827F19D0B0F5B1
:103A3000837FB0D107E040464FF40051FCF799FF77
:103A40003C20FCF79FFD01980121FCF78DFF002829
:103A5000F1D06420FCF796FDFDF73EF84FF0000B27
:103A600099E740464FF40051C346FCF77DFF421EE4
:103A700040464FF4005118BF0122FCF781FF4FF080
:103A8000000B88E79C28004088010020F0B587B033
:103A90001D4C054620464FF4005101220127FCF73A
:103AA0006FFFAE02FCF718FE680605D0A5F1100006
:103AB0004FEA301003280ED8144801884A1C0280AF
:103AC000022005900020CDE90107CDE9031701A8E8
:103AD00006A9FCF769FD0E4F06F100650026B6F554
:103AE000806F07D2BA59A91902200023FCF7B2FD52
:103AF0000436F4E720464FF400510022FCF740FF63
:103B0000FCF7A0FD07B0F0BD00080240080000204F
:103B1000000B00200FB4084B10B504A902AA0398AB
:103B200000F01CF8044602A9002000F077F92046B6
:103B300010BC5DF814FB00001D3E000802E008C840
:103B4000121F08C1002AFAD170477047002001E017
:103B500001C1121F002AFBD1704700002DE9FF4F61
:103B60008DB09B460F460446002606E025280BD064
:103B70005A460F999047641C761C20780028F5D18E
:103B800011B03046BDE8F08F0025A84601229849C3
:103B900000E0054314F8013F203B02FA03F008421D
:103BA000F7D120782E2817D114F8010F45F004051D
:103BB0002A280ED06FF02F022078A0F130010929B9
:103BC0000AD808EB880102EB410100EB0108641CF4
:103BD000F2E757F8048B641C20786C280DD004DCC5
:103BE0004C2812D06A2811D104E074280DD07A280C
:103BF0000CD10AE045F4001507E0617845F4801522
:103C0000814202D1641C05F58015641C2278692A62
:103C100045D008DC002AB3D0582A69D0632A10D0D6
:103C2000642A08D13BE0702A67D0732A13D0752A22
:103C30005CD0782A5CD010465A460F999047761C83
:103C4000D3E017F8040B8DF8000000208DF8010078
:103C5000E946012003E057F8049B4FF0FF30690765
:103C60004FF0000501D40AE06D1C45450DDA854290
:103C7000FADB19F805100029F6D106E06D1C854223
:103C8000FCDB19F805100029F8D12E4404E019F8DE
:103C9000010B5A460F9990476D1EF8D2A5E00A20F5
:103CA0000021CDE90801C5F3025002280DD001CF53
:103CB000C117031E71F100030DDA4FF0000CD0EBB9
:103CC0000C006CEB01012D2308E0FF1D27F0070716
:103CD000F7E80201EDE72B0504D52B238DF82830FA
:103CE00001233BE0EB0739D02023F7E70A2000E06F
:103CF00010200021CDE9080107E01020002145F047
:103D00000405CDE908014FF00808C5F30250022868
:103D10000FD001CF00214FF0000A2B071FD5702ACA
:103D20000DD0DDE908C38CF0100C5CEA030C0CD05C
:103D300015E0FF1D27F00707F7E80201EBE7402237
:103D40008DF828204FF0010A0BE050EA010306D05D
:103D500030238DF828308DF8292002239A46582ADE
:103D600004D024A20DF120090B9209E026A2F9E764
:103D7000DDE90823FCF72CFA0B9B9B5C09F8013D5D
:103D800050EA0102F4D1ADEB090020300890680739
:103D900001D44FF001080899884502DDA8EB010025
:103DA00000E000208046002506E00AA85A46405D53
:103DB0000F9990476D1C761C5545F6DB04E03020CA
:103DC0005A460F999047761CB8F10001A8F10108F6
:103DD000F5DC05E019F8010B5A460F999047761C5F
:103DE0000899481E08900029F4DC641CC5E6000010
:103DF00009280100303132333435363738396162C1
:103E00006364656600000000303132333435363784
:103E10003839414243444546000000000A68531CBB
:103E20000B6010707047000010B5002821D0114BB6
:103E30000022001F196803E0814203D80A4649683E
:103E40000029F9D152B11368841A9C4204D1006848
:103E500018441060104602E0506000E0186039B16C
:103E600002680B1A934203D10B681A440260496836
:103E7000416010BD00000020F0B50B30154D20F062
:103E800007010024144A0FE003688B420BD38B42D6
:103E900005D95E1A43184768C3E9006700E0436824
:103EA000136002C004E0021D10680028ECD1204617
:103EB000002802D1286808B10020F0BD064A074852
:103EC0001060074A121A22F00702C0E900240120FC
:103ED0002860D7E704000020000000200C0F00201D
:103EE0000817002000000000000000000102030489
:103EF00006070809183F000800000020880100009C
:103F0000F8020008E83F000888010020801900003E
:103F10004C3B000800000000813201321027576539
:103F20004163743A3AFF01491914DC051412C815AB
:103F3000E803B5366A0828120613FF092809A1010B
:103F400075089540910306168103C0D52114081504
:103F5000221B0821041A3D041A71041AA5141AE13F
:103F600004111324F413A91F1B081F041B31201074
:103F7000296C190C13F11E1B08FF04C11A91181AA1
:103F800085041A9D041A79041409022913010125D4
:103F9000C03209043302031509211101140122144E
:103FA0001607058103402D0107050107291A092A73
:103FB0002C691A31130A0632020A2E4044223814A0
:103FC0002055031B0851041A59044B12014815834C
:103FD000042A571D02010203252E040309041A476F
:083FE000011B000000000000BD
:040000050800019955
:00000001FF
